:100000000C9434000C9446000C9446000C9446006A
:100010000C9477000C9446000C9446000C94460017
:100020000C9446000C9446000C9446000C94460038
:100030000C9446000C9446000C9446000C94460028
:100040000C9446000C9446000C9446000C94460018
:100050000C9446000C9446000C9446000C94460008
:100060000C9446000C94460011241FBECFEFD8E03C
:10007000DEBFCDBF21E0A0E0B1E001C01D92A23003
:10008000B207E1F70E9461000C94AD000C940000EF
:100090008AB18C6F8AB98BB18C6F8BB984B18F6147
:1000A00084B985B18F6085B917B8ECE6F0E080813E
:1000B00083608083E8E6F0E08081826080837894CA
:1000C00008950E9448008091000190910101880FDD
:1000D000991F880F991F282F2095892F8095982F79
:1000E000937085B18C7F892B2BB985B9ECCF1F928A
:1000F0000F920FB60F9211242F938F939F933099E5
:1001000012C080910001909101010197909301012B
:10011000809300010196C9F48FEF90E09093010164
:100120008093000112C0319910C08091000190911C
:100130000101019690930101809300018115914086
:1001400021F410920101109200019F918F912F9143
:0E0150000F900FBE0F901F901895F894FFCFE0
:00000001FF
